:020000040800F2
:1000000058090020910A0008C5020008C70200082C
:10001000CB020008CF020008D30200080000000055
:10002000000000000000000000000000D7020008EF
:10003000D902000800000000DB020008DD02000811
:10004000AB0A0008AB0A0008AB0A0008AB0A0008BC
:10005000AB0A0008AB0A0008AB0A0008AB0A0008AC
:10006000AB0A0008AB0A0008AB0A0008AB0A00089C
:10007000AB0A0008AB0A0008AB0A0008AB0A00088C
:10008000AB0A0008AB0A0008AB0A0008AB0A00087C
:10009000AB0A0008AB0A0008AB0A0008AB0A00086C
:1000A000AB0A0008AB0A0008AB0A0008AB0A00085C
:1000B000AB0A0008AB0A0008AB0A0008AB0A00084C
:1000C000AB0A0008AB0A0008AB0A0008AB0A00083C
:1000D000AB0A00083B080008DF0800081B080008FE
:1000E000AB0A0008AB0A0008AB0A0008AB0A00081C
:1000F000AB0A0008AB0A0008AB0A0008AB0A00080C
:10010000AB0A0008AB0A0008AB0A0008AB0A0008FB
:10011000AB0A0008AB0A0008AB0A0008AB0A0008EB
:10012000AB0A0008AB0A0008AB0A0008AB0A0008DB
:1001300000F002F800F04DF80AA090E8000C8244AC
:100140008344AAF10107DA4501D100F042F8AFF289
:10015000090EBAE80F0013F0010F18BFFB1A43F0A5
:10016000010318475435000074350000103A24BFCD
:1001700078C878C1FAD8520724BF30C830C144BF0C
:1001800004680C607047000000230024002500264E
:10019000103A28BF78C1FBD8520728BF30C148BFEA
:1001A0000B607047732901F0F383002070471FB57F
:1001B00001F0D8FB04000020002103F03FF8401CB0
:1001C00060600020002103F04FF8E0601FBD10B513
:1001D00010BD02F0FFF81146FFF7E9FF00F008F844
:1001E00002F052FB03B4FFF7F2FF03BC00F01AFA6F
:1001F00000F0AEF94FF4A06001F0EEF94FF4E130F9
:1002000000F01EFA4FF4E13000F0B9FA4FF4E1309B
:1002100000F065FA00F07CF900F052F900201A496C
:1002200008601FE019A11A4801F058FB48B917A14E
:10023000184801F053FB20B914A1174801F04EFBF8
:1002400030B1144B124A144914A001F03DFA0AE0EF
:100250000D480068C0431849C1F8A0014FF4FA7076
:1002600000F0B3F9DEE700BF01200749086009E0AC
:1002700012480068C0431249C1F888014FF4FA706F
:1002800000F0A3F9F4E70000A00121420000000003
:10029000B0020020E20200202400002049443D2555
:1002A000732C6E616D653D25732C70686F6E653DB6
:1002B00025730D0A000000000000214288812242BF
:1002C00000802242704700BFFEE700BFFEE700BF8C
:1002D000FEE700BFFEE770477047704770470000B9
:1002E0000CB50020019000906C48006840F480300C
:1002F0006A49086000BF6948006800F40030009057
:100300000198401C0190009818B90198B0F5A06FB1
:10031000F1D16248006800F4003010B10120009073
:1003200001E0002000900098012843D15C4800685B
:1003300040F010005A4908600846006820F00300A9
:1003400008600846006840F00200086053484068B2
:10035000524948600846406848600846406840F492
:10036000806048600846406820F47C104860084679
:10037000406840F4E81048600846006840F080702B
:10038000086000BF4548006800F000700028F9D000
:100390004248406820F003004049486008464068F1
:1003A00040F00200486000BF3C48406800F00C008C
:1003B0000828F9D10CBD10B5FFF792FF10BD10B59C
:1003C0003648006840F0010034490860084640683B
:1003D00034490840314948600846006832490840BD
:1003E0002E4908600846006820F48020086008460E
:1003F000406820F4FE0048604FF41F008860FFF75B
:10040000DAFF4FF000602949086010BD10B50021E7
:1004100000200022214B5B6803F00C0121B104296C
:1004200006D0082928D107E0214B224C236027E081
:100430001F4B204C236023E0184B5B6803F47010C3
:10044000164B5B6803F48032022303EB904022B921
:10045000194B4343174C23600DE0104B5B6803F4CA
:10046000003323B1144B4343124C236003E0104B81
:100470004343104C236003E00D4B0E4C236000BF40
:1004800000BF064B5B68C3F303130C4CE15C094BE4
:100490001B68CB40074C236010BD000000100240D9
:1004A000002002400000FFF8FFFFF6FE08ED00E02C
:1004B00000127A000000002000093D000400002026
:1004C00008B50121242000F01FFE4FF48070ADF824
:1004D000000010208DF8030003208DF8020069460B
:1004E000094800F055FB4FF48071074800F0FDFB10
:1004F0000420ADF800006946044800F049FB0421DF
:10050000024800F0F2FB08BD000801400014014061
:1005100008B50121082000F0F7FD0420ADF8000027
:1005200010208DF8030003208DF80200694606486C
:1005300000F02EFB08BD0120044908607047002030
:100540000249086070470000000C01408881214288
:1005500010B56FF0040001F08EF82E4800682E49A7
:10056000B0FBF1F02D4908700846007800EB40011F
:10057000C1EBC0104FF6FF7101EAC00028490880A6
:1005800010BD0146254A12784A434FF0E0235A61D4
:1005900000229A611A46126942F001021A6100BFF4
:1005A0004FF0E022106900F001021AB100F480322D
:1005B000002AF5D04FF0E022126922F001024FF03C
:1005C000E0231A6100229A6170470146144A12889A
:1005D0004A434FF0E0235A6100229A611A46126999
:1005E00042F001021A6100BF4FF0E022106900F0F2
:1005F00001021AB100F48032002AF5D04FF0E02257
:10060000126922F001024FF0E0231A6100229A6180
:10061000704700000000002000127A001400002043
:100620001600002000BF704700BFE44A128802F0A5
:100630004002002AF9D0C2B2E04B1B1D1A8070475D
:1006400010B586B00446012144F2040000F05CFDC0
:100650004FF40070ADF8140003208DF81600182038
:100660008DF8170005A9D64800F092FA4FF4806083
:10067000ADF8140004208DF8170005A9D04800F04B
:1006800087FA25208DF8000003208DF801008DF8F1
:10069000020001208DF80300684600F0A2FF0194DB
:1006A0000020ADF80800ADF80A00ADF80C00ADF878
:1006B00010000C20ADF80E0001A9C04800F0CBFDE1
:1006C000012240F22551BD4800F05DFE0121BB48EA
:1006D00000F04DFEBBA000F0F7FF06B010BD10B556
:1006E00086B004460121082000F00EFD0121880497
:1006F00000F017FD4FF48060ADF8140003208DF872
:10070000160018208DF8170005A9B34800F040FA2C
:100710004FF40060ADF8140004208DF8170005A90F
:10072000AD4800F035FA27208DF8000002208DF842
:10073000010003208DF8020001208DF803006846B7
:1007400000F04FFF01940020ADF80800ADF80A005A
:10075000ADF80C00ADF810000C20ADF80E0001A9AA
:100760009E4800F078FD012240F225519B4800F0A0
:100770000AFE0121994800F0FAFD06B010BD10B53F
:1007800086B004460121042000F0BEFC012148048B
:1007900000F0C7FC0420ADF8140003208DF816000B
:1007A00018208DF8170005A9854800F0F1F90820F8
:1007B000ADF8140004208DF8170005A9804800F05A
:1007C000E7F926208DF8000001208DF801000320B4
:1007D0008DF8020001208DF80300684600F001FF4B
:1007E00001940020ADF80800ADF80A00ADF80C0047
:1007F000ADF810000C20ADF80E0001A9784800F00B
:100800002AFD012240F22551754800F0BCFD01216E
:10081000734800F0ACFD06B010BD10B540F2255194
:100820006E4800F095FE38B16C4800F011FEC4B27D
:10083000312C01D1FFF77FFE10BD10B540F22551DC
:100840005E4800F085FE002831D05C4800F000FED4
:10085000C4B22146594800F0F7FD00BF8021574837
:1008600000F060FE0028F9D00D2C18D15D480088FA
:10087000A8B101205C49086000205C49594A1288EF
:1008800088545BA1594801F017F828B15A4B5B4ACC
:100890005BA1564800F082FF002052490880514871
:1008A00001880088401C4F4A10805048445410BDB5
:1008B00070B50446002600250CE000F0FDFE00683F
:1008C000615D405C00F0010018B9625D3046761C45
:1008D00022546D1C605D0028EFD1A05570BD38B565
:1008E00040F225513E4800F033FE00283FD03C48FE
:1008F00000F0AEFDC4B22146304800F0A5FD00BFB7
:1009000080212E4800F00EFE0028F9D00D2C26D1B3
:1009100045480088002822D000204449424A1288D5
:10092000885443A1414800F0C7FF50B13F48FFF74A
:10093000BFFF3148314B3F4A3FA100903B4800F098
:100940002DFF49A1394800F0B7FF28B1474B484A6D
:1009500048A1364800F022FF002033490880324881
:1009600001880088401C304A10803048445438BD0B
:1009700070B504460D462946204600F065FD00BFCF
:100980008021204600F0CEFD0028F9D070BD70B562
:1009900006460C46002500BF615D3046FFF7E8FFC4
:1009A000681C85B2605D0028F6D100BF402130464A
:1009B00000F0B8FD0028F9D070BD000000380140FB
:1009C000000801405553415254315F496E6974200B
:1009D0006F6B210D0A000000000C01400048004030
:1009E0000044004040000020A001214258000020A7
:1009F0006E616D6500000000E2020020B002002080
:100A00007B2022252A5B5E3A5D3A22255B5E225DD1
:100A1000222C2022252A5B5E3A5D3A22255B5E224B
:100A20005D22207D0000000042000020E80100203F
:100A300049440000240000207B224944223A222518
:100A40005B5E225D222C226E616D65223A22255B5F
:100A50005E225D222C2270686F6E65223A22255B31
:100A60005E225D227D0000006F6B000038000020D8
:100A700030000020252A5B5E2C5D2C252A5B5E2C35
:100A80005D2C6F6B2C256C662C256C6600000000BD
:100A90000948804709480047FEE7FEE7FEE7FEE712
:100AA000FEE7FEE7FEE7FEE7FEE7FEE7044805494E
:100AB000054A064B70470000BF03000831010008DB
:100AC0005803002058090020580500205805002030
:100AD00010B50446CC48844208D10121042000F01E
:100AE0002DFB0021042000F029FB46E0C74884428A
:100AF00008D10121082000F021FB0021082000F08E
:100B00001DFB3AE0C248844208D10121102000F0C8
:100B100015FB0021102000F011FB2EE0BD4884429F
:100B200008D10121202000F009FB0021202000F045
:100B300005FB22E0B848844208D10121402000F0A2
:100B4000FDFA0021402000F0F9FA16E0B348844293
:100B500008D10121802000F0F1FA0021802000F06E
:100B6000EDFA0AE0AE48844207D10121801500F079
:100B7000E5FA0021A01500F0E1FA10BD10B5012141
:100B8000084600F0DBFA0021012000F0D7FA10BD82
:100B90002DE9F04102460025002600200023002414
:100BA000002791F803C00CF00F0591F803C00CF07A
:100BB000100CBCF1000F03D091F802C04CEA0505FF
:100BC00091F800C0BCF1000F31D0146800202BE078
:100BD0004FF0010C0CFA00F3B1F800C00CEA030668
:100BE0009E4220D183004FF00F0C0CFA03F7BC4358
:100BF00005FA03FC4CEA040491F803C0BCF1280F89
:100C000006D14FF0010C0CFA00FCC2F814C00AE047
:100C100091F803C0BCF1480F05D14FF0010C0CFA5C
:100C200000FCC2F810C0401C0828D1D31460B1F8F1
:100C300000C0BCF1FF0F34DD546800202EE000F14D
:100C4000080C4FF0010808FA0CF3B1F800C00CEAE8
:100C500003069E4221D183004FF00F0C0CFA03F7DC
:100C6000BC4305FA03FC4CEA040491F803C0BCF150
:100C7000280F05D100F1080C08FA0CF8C2F814800E
:100C800091F803C0BCF1480F07D100F1080C4FF0F8
:100C9000010808FA0CF8C2F81080401C0828CED3CE
:100CA0005460BDE8F0814FF6FF7101800221817030
:100CB0000421C17070470246002093680B400BB1BD
:100CC000012000E0002070470146886880B270472C
:100CD00002460020D3680B400BB1012000E0002049
:100CE00070470146C86880B2704701617047416132
:100CF00070470AB1016100E041617047C16070470F
:100D00004FF480320A438261816182618269826923
:100D1000704702460020434B18684FF68073184016
:100D200040EA021008433F4B186070473E49C861D3
:100D30007047F0B50A46002300240021002500F08A
:100D40000046B6F1004F02D1364EF16901E0354E52
:100D50007168C0F3034583B200F44016B6F5401F36
:100D600008D121F070612F4E766826F070662D4F05
:100D70007E6012E000F48016B6F5801F06D10326CF
:100D800006FA05F4A14341F0706106E0460D360114
:100D900003FA06F6B14341F0706122B1460D360107
:100DA00003FA06F6314300F00046B6F1004F02D1D7
:100DB0001C4EF16101E01B4E7160F0BD30B50022A8
:100DC0008B071C0F0F2303FA04F2164B08338C1009
:100DD00053F824309343134C08348D1044F82530D5
:100DE00023468C1053F824308C07240F00FA04F4A7
:100DF00023430C4C08348D1044F8253030BD0A498B
:100E0000DC3108607047000000080140000C014020
:100E1000001001400014014000180140001C014076
:100E2000002001400000014000002042DF4800682F
:100E300040F00100DD49086008464068DC49084090
:100E4000DA49486008460068DA490840D74908602E
:100E50000846006820F4802008600846406820F4B6
:100E6000FE0048604FF41F0088607047CF49096852
:100E700021F48031CD4A11601146096821F48021A6
:100E80001160B0F5803F03D0B0F5802F0ED106E0A1
:100E9000C649096841F48031C44A116007E0C3497A
:100EA000096841F4A021C14A116000E000BF00BF01
:100EB000704710B501460022002300204A11012A84
:100EC00002D1BA4C236806E0022A02D1B74C236A49
:100ED00001E0B64C636A01F01F02012494401C40FB
:100EE0000CB1012000E0002010BD38B500200090BA
:100EF0000024002500BF3120FFF7DBFF05460098E6
:100F0000401C00900098B0F5A06F01D0002DF2D0E9
:100F10003120FFF7CEFF08B1012400E00024204675
:100F200038BD01460020A14A106820F0F80040EAD0
:100F3000C10010607047A049086070470246002059
:100F40009A4B586820F47C1042EA01031843974BEF
:100F50005860704798490866704701460020934AD8
:100F6000506820F003000843506070478F48406885
:100F700000F00C007047014600208C4A506820F0B9
:100F8000F00008435060704701460020874A5068CF
:100F900020F4E06008435060704701460020834A17
:100FA000506820F4605040EAC1005060704729B199
:100FB0007E4A527A02437D4B5A7204E07B4A527A4F
:100FC00082437A4B5A7270477B49D8310860704728
:100FD00001460020754A506820F4404008435060A4
:100FE00070470021714A20321170704A82F8201037
:100FF000012802D004280AD104E001216B4A2032E2
:10100000117005E00521694A2032117000E000BF2F
:1010100000BF70476949086070476449096A014325
:10102000624A11627047654944390860704730B5BB
:1010300000210022002400235C4D6D6805F00C01A6
:1010400021B1042905D0082923D105E05C4D0560B4
:1010500022E05B4D05601FE0544D6D6805F4701291
:10106000524D6D6805F48034022505EB92421CB99F
:10107000544D554305600BE04C4D6D6805F400354B
:101080001DB1504D5543056002E04D4D554305607F
:1010900002E04B4D056000BF00BF444D6D6805F098
:1010A000F0010909484D6B5C0568DD4045603F4D26
:1010B0006D6805F4E061090A434D6B5C4568DD40ED
:1010C00085603A4D6D6805F46051C90A3E4D6B5C10
:1010D0004568DD40C560354D6D6805F44041890BBC
:1010E0003A4D6B5CC568B5FBF3F5056130BD29B1C0
:1010F0002E4A526902432D4B5A6104E02B4A526931
:1011000082432A4B5A61704729B1284A92690243A7
:10111000264B9A6104E0254A92698243234B9A61E7
:10112000704729B1214AD2690243204BDA6104E0B9
:101130001E4AD26982431D4BDA61704729B11B4AAE
:10114000D2680243194BDA6004E0184AD26882433D
:10115000164BDA60704729B1144A12690243134BE7
:101160001A6104E0114A12698243104B1A617047F8
:1011700012494039086070470F49C86470470B49ED
:10118000C87170470948406A40F08070074948625A
:10119000704701460020054A92680A400AB10120C2
:1011A00000E000207047014988727047001002403B
:1011B0000000FFF8FFFFF6FE0000424280044242BA
:1011C00000127A0000093D00440000205400002075
:1011D00010B50446FB48844209D101218803FFF77A
:1011E000ADFF00214FF48040FFF7A8FF32E0F64842
:1011F000844209D101214804FFF7ADFF00214FF4DB
:101200000030FFF7A8FF25E0F048844209D1012112
:101210008804FFF7A0FF00214FF48020FFF79BFF19
:1012200018E0EB48844209D10121C804FFF793FF7D
:1012300000214FF40020FFF78EFF0BE0E5488442C9
:1012400008D101210805FFF786FF00214FF4801027
:10125000FFF781FF10BD2DE9F04786B005460E4629
:101260000024A24600BFA1460027B08900B100BFFC
:101270002F462C8A4CF6FF700440F08804432C82E1
:10128000AC894EF6F3100440B08831890843718967
:1012900008430443AC81AC8A4FF6FF400440B08958
:1012A0000443AC8201A8FFF7C2FEC648874202D1C0
:1012B000DDF810A001E0DDF80CA0A88900F40040E2
:1012C00040B10AEBCA0000EB0A1031684900B0FBDC
:1012D000F1F807E00AEBCA0000EB0A103168890058
:1012E000B0FBF1F86420B8FBF0F0040120096421A0
:1012F00001FB1089A88900F4004040B1322000EBC6
:10130000C900B0FBF1F000F00700044308E0322010
:1013100000EB09106421B0FBF1F000F00F00044372
:101320002C8106B0BDE8F0874FF416510160002112
:101330008180C18001810C21418100218181704720
:1013400010B502460020108A4FF2FF0318400B88A8
:101350004C8823438C882343CC8823431843108232
:1013600010BD0021018041808180C180704721B182
:10137000828942F40052828104E082894DF6FF7333
:101380001A4082817047F0B50346002400260025EC
:10139000002040F66A17B94200D100BF1846C1F3D9
:1013A000421401F01F06012707FA06F5012C01D1AE
:1013B0000C3004E0022C01D1103000E014301AB1DE
:1013C00007682F43076002E00768AF430760F0BD7E
:1013D0001AB1838A0B43838202E0838A8B43838220
:1013E0007047028A4FF6F0731A400282028A0A435B
:1013F0000282704782894FF2FF731A40828182898C
:101400000A438281704721B1828942F002028281BF
:1014100004E082894FF6FD731A4082817047028A88
:101420004FF6DF731A400282028A0A430282704733
:1014300021B1028A42F48042028204E0028A4BF621
:10144000FF731A4002827047C1F30802828070471E
:1014500001468888C0F308007047818941F0010186
:1014600081817047028BD2B20283028B42EA012251
:1014700002837047028B02F47F420283028B0A438D
:101480000283704721B1828A42F02002828204E006
:10149000828A4FF6DF731A408282704721B1828AB6
:1014A00042F01002828204E0828A4FF6EF731A4003
:1014B0008282704721B1828A42F00802828204E06F
:1014C000828A4FF6F7731A408282704721B182896F
:1014D00042F40042828103E08289C2F30E028281DB
:1014E000704721B1828A42F40062828204E0828ADB
:1014F0004FF2FF731A4082827047828A4FF6FB7365
:101500001A408282828A0A438282704721B1828A8B
:1015100042F00202828204E0828A4FF6FD731A4092
:101520008282704702460020B1F5007F00D100BFE3
:1015300013880B400BB1012000E00020704701F43C
:101540000072B2F5007F00D100BFCA43028070472D
:1015500070B50246002400230025002040F66A16DC
:10156000B14200D100BFC1F3421501F01F030126B3
:1015700006FA03F3012D02D19689334006E0022DCD
:1015800002D1168A334001E0968A33400C120126BC
:1015900006FA04F41688344013B10CB1012000E0BF
:1015A000002070BD10B50022002340F66A14A1424D
:1015B00000D100BF0A1201249440A3B2DC4304808E
:1015C00010BD0000003801400044004000480040C9
:1015D000004C00400050004031490143314A116045
:1015E000704770B5002100230F22C47804B32D4C3E
:1015F000246804F4E064C4F5E064210AC1F1040342
:10160000CA40447804FA03F1847814402143090164
:10161000254C0678A155047804F01F050124AC4040
:1016200005786D11AD0005F1E025C5F8004109E030
:10163000047804F01F050124AC401C4D0678761197
:1016400045F8264070BD1A4A0A400243154B1B1F3D
:101650001A60704739B1134A121D12680243114BC8
:101660001B1D1A6006E00F4A121D126882430D4BC3
:101670001B1D1A607047042808D14FF0E02109694A
:1016800041F004014FF0E022116107E04FF0E0214A
:10169000096921F004014FF0E02211617047000058
:1016A0000000FA050CED00E000E400E080E100E05D
:1016B00080FFFF1F7047000010B500F053F9001DB8
:1016C00010BD00BF791B00000FB4044910B503AA78
:1016D000029800F061F910BC5DF814FB18000020BE
:1016E0002DE9F0410E460446002020622046E168C4
:1016F000884730B3252805D0D4E901219047206AD6
:10170000401CF2E7E168204600278847050018D012
:10171000A5F14100192802D820354FF40067324660
:10172000294620462760FEF73DFD40B1012804D040
:10173000F61D26F007060836D8E7361DD6E72846F8
:10174000DAE7206ABDE8F08170B50C460546012A4B
:1017500005D02878800600D5EA69002302E001233D
:1017600005E05B1C934202D2E05C0028F9D1A86935
:10177000E618C01AA861286A184428622846AFF300
:10178000008004E0D5E9012114F8010B9047B44230
:10179000F8D32846AFF3008070BD00000FB400B549
:1017A0008DB010A9099000910B904FF0FF300A9076
:1017B00000200C90064878440690064878446A4613
:1017C00007900F9909A800F07BFB0DB05DF814FBA2
:1017D000270700003F0700002DE9FF5F4FF00008DA
:1017E0009946144646469169D2E901A7DDF838B01A
:1017F00001988847054659EA0B0005D009E0A16920
:101800000198761C88470546216A284688470028A3
:10181000F5D1681C03D05FEACA7005D015E04FF01F
:10182000FF3004B0BDE8F09F2068011D2160D0F8B2
:1018300000800AE05FEACA7001D108F8015BA16983
:10184000761C01987F1E88470546002F1ADD681C0C
:1018500018D0B9F1000F0DD0E81705EBD060421198
:1018600020F01F0059F822102A1A0120904001424E
:10187000E0D107E0BBF1000FDCD12846216A8847A0
:101880000028D7D0E16901988847BBF1000F07D144
:10189000002E05DD5FEACA7002D1002188F8001031
:1018A000A068B84203DDBBF1000F03D017B16FF0A1
:1018B0000100B6E73046B4E730B505460B462A4688
:1018C00013F8014B12F8010B08B1A042F8D01CB17B
:1018D000002802D06D1CF1E7284630BD4FF0013CD6
:1018E00050F8042B51F8043B9A4221D1A2EB0C038F
:1018F000934313EACC1317D150F8042B51F8043B4F
:101900009A4215D1A2EB0C03934313EACC130BD1EB
:1019100050F8042B51F8043B9A4209D1A2EB0C0376
:10192000934313EACC13DBD04FF00000704700BFA5
:10193000D01A01BAB1FA81F101F0180122FA01F0CE
:10194000CB40C1F12001DBB2C0B2C01A2CFA01F3C6
:10195000D11A914311EAC311E6D17047704770471D
:1019600070477047004870471403002010B5436962
:1019700013B1AFF3008001E0FFF7E6FE012010BDD8
:10198000127800F124010A7000224A700122EDE76A
:1019900011684FF0FF32E9E7074B70B50D467B4405
:1019A00000F0D5FA0446284600F010FD10B14FF0C3
:1019B000FF3070BD204670BD87ECFFFF2DE9FF4F63
:1019C00006468BB00878FF2806D0491C2D2805D084
:1019D00000244FF0000908E000200CE00124F8E7A3
:1019E00009EB8903491C00EB43090878FF28F7D16C
:1019F00014B1C9F100008146107800252C46AA4692
:101A000029462D2801D02B2804D1521C2D2813D073
:101A1000002082468B461078FF280FD04FF0000C34
:101A20000A21521CA5FB017804FB018105FB0C1166
:101A3000C5194BEB0104EEE70120EAE70021084657
:101A40004FF00000BAF1000F02D000EB8000400818
:101A5000C0F38157012F01DD4FF0FF370E9955EA92
:101A6000040009EB01080BD04FF0020918F5FA7FCA
:101A700016DA4FEACA70002F706008DD012007E017
:101A80004FEACA70C6E900B00FB0BDE8F08F002081
:101A9000306000F049FAC0F800901821084616E0BE
:101AA000B8F5FA7F18DD002F02DAF748784401E034
:101AB000F6487844D0E90010C6E9001040EACA7040
:101AC000706000F031FAC0F80090142108460FB0A1
:101AD000BDE8F04F01F025BD002108464FF00000A1
:101AE000B8F10001099002DAC7F1000200E03A46BD
:101AF00001DAC8F1000106A800F0F6FB06AB93E896
:101B0000070003AB83E8070044F23E005BEA0401F0
:101B10000090584604D144F21E012C465D460091C7
:101B2000210C0904014306D10099240444EA154418
:101B30002D041039009104F07F41014306D1009932
:101B4000240244EA15642D020839009104F0704122
:101B5000014306D10099240144EA15742D01091F9F
:101B6000009104F04041014306D10099A40044EAE9
:101B70009574AD00891E009104F00041084304D122
:101B800000986D196441401E00904FF001033A46E1
:101B90006846B8F1000FCDE9014503A902DD01F067
:101BA00028F901E001F0FBF8BAF1000F04460D46F8
:101BB00001D084F00044002108464FF0000009994C
:101BC00040F2FF77484010F00C0F07D124F000409E
:101BD000284303D0C4F30A50B84212D100F0A4F94C
:101BE000C0F80090C4F30A50B8420AD1A84878441B
:101BF000D0E90010C6E9001004F00041084370600D
:101C000042E7C6E900543FE72DE9FF4F1F464FF07A
:101C1000000A4FF0FF38454691B0D7E90146CDF8AC
:101C20003CA0FFF79FFEC0680168405C1090B96956
:101C300012986D1C8847396A814688470028F6D17A
:101C4000B9F1FF3F0AD0002E24F4D06411DDB9F1C0
:101C50002B0F08D0B9F12D0F0BD102E0404615B083
:101C600013E744F48064B96912986D1C8847761EA6
:101C70008146600504A901D52D2000E02B20002E0F
:101C800001F1010B0DF130088DF810003FDDB9F1C5
:101C9000690F08D0B9F1490F05D0B9F16E0F02D024
:101CA000B9F14E0F1CD13B4601A8009580E85002C7
:101CB000DDE912126FF0020001F09AFCC11CCED1D6
:101CC0000EE0B96912986D1C884781461398761EFC
:101CD00044F4007405600F98401C002E0F9016DD30
:101CE000B9F1300FEDD0B9F1780F02D0B9F1580F3A
:101CF0000DD10F9801280AD13B46CDE90054DDE90A
:101D00001212001F029601F071FCC11CA7D110999C
:101D100089453ED144F0800406E01399681CAAF17D
:101D2000010A44F400740860B9696D1C1298761EAB
:101D3000884730288146F0D02BE01099894505D19D
:101D4000200603D4761E44F0800418E0484601F0D3
:101D500008FA08B3761E0DF123018B4544F4007494
:101D600008D2A9F130000BF8010B200607D5AAF123
:101D7000010003E0200602D40AF101008246A0051A
:101D800002D51399681C0860B96912986D1C8847C0
:101D90008146002ED1DC53E0002E51DDB9F1650FF4
:101DA00002D0B9F1450F4BD1A00549D5B9696D1CD9
:101DB0001298761E24F440748847002E81460CDD6C
:101DC0002B2804D0B9F12D0F07D144F48074B969E0
:101DD00012986D1C8847761E8146E00501D52D219D
:101DE00000E02B2108F8011BCDF8008021E0761ED1
:101DF0000DF13901884544F400740CD2A9F130008A
:101E000010F0FF0088F8000002D10099884509D938
:101E100008F1010806E0E00501D51E4801E042F2A4
:101E20000F708246B96912986D1C884781461398D5
:101E30000560002E04DD484601F093F90028D6D154
:101E4000F96912988847FF2053468BF8000088F8FC
:101E5000000000200A900B9004AA0CA90AA8FFF722
:101E6000ADFDA00502D46FF00100F8E614F0240FD8
:101E700012D0E0071CD13868DDE90A12031D3B606F
:101E80000068C0E9001213E0301C0000221C0000B2
:101E9000E61A0000F1D8FFFF0AA9684601F0F0F841
:101EA000E00705D13868009A011D396000680260BA
:101EB0002846D4E60268114413780160184670473A
:101EC000D160054979445161044979441162002186
:101ED0001161114600F04EB8EDFFFFFF63000000F6
:101EE000426842B1016811F8013B23B1521EC0E9BA
:101EF0000012184670470121C160881E7047426871
:101F00005AB1C368016843B983688B4205D0491E42
:101F1000521CC0E90012002070474FF0FF3070479C
:101F200000487047F402002000487047F402002087
:101F300010B50446FFF7C0FB0068005D00F001002B
:101F400010BD000001694A1C02610878704700B5A5
:101F50008FB0CDE901310021059105497944CDE9E2
:101F6000031011466846FFF7BBFB0FB000BD000031
:101F7000E5FFFFFF2DE9F34F4FF0000A0C465646F0
:101F80008DB001200C9001F10C000B9062690B9850
:101F900001219047051E2DD0252D2CD0216A884780
:101FA000C0B162690B9801219047216A88470028D7
:101FB000F7D16269411E0B98904700E0761CA16939
:101FC0000D988847216A88470028F7D1E1690D9864
:101FD0008847DBE7A1690D988847A842074601D1E9
:101FE000761CD3E7E1690D9888477F1C02D1BAF1CE
:101FF000000F6FD06CE162690B9800273D463946AF
:1020000090472A2804D162690B9801219047012545
:10201000DFF8D08262690B9801219047A0F130016E
:102020000A290AD24745E5DC07EB870100EB4107A7
:10203000303FDFD445F01005ECE7E90601D46FF03E
:1020400000476C280AD04C2814D0682815D06A287C
:102050000DD074281CD07A281AD01DE062690B9824
:10206000012190476C2802D045F0040514E045F0AA
:1020700002050DE045F020050AE062690B98012198
:102080009047682802D045F0080505E045F4006552
:1020900062690B9801219047C4E9015765283DD03A
:1020A00019DC58287AD00CDC452837D004DC2528E8
:1020B00026D041289ED131E046282FD0472899D1FB
:1020C0002CE05B2877D0612828D063287CD0642856
:1020D00023D15AE0F7E06F2848D008DC66281DD0ED
:1020E00067281BD0692821D06E2816D127E07028D8
:1020F00045D0732868D0752847D078280DD14DE099
:10210000A1690D988847252805463FF469AFE16924
:102110000D9888476D1C3FF46AAFD9E00D992346AE
:102120006A466FF0010001F05FFAC6E045F040003A
:1021300023464FF000026060A80736D43EE0E8076F
:102140007FF447AF2068011D21600068290501D593
:1021500006701BE7290701D5068017E7A90703D5F5
:10216000F117C0E9006111E706600FE745F0400094
:1021700023464FF008026060A80716D41EE040F620
:102180000E0125EA0100606016E045F0400023469C
:102190004FF00A026060A80707D40FE045F0400046
:1021A0006060A80708D5234610220D996FF0010042
:1021B000AFF3008081E007E0102223460D996FF015
:1021C0000100AFF3008078E04FF0000963284F462C
:1021D000C8464B46CB4602D05B2807D039E0207971
:1021E000C00601D40120A060012732E06269D4F862
:1021F0000CB00B98012190475E2807D14FF00109E0
:1022000049466269D4F80CB00B989047216939B9F6
:1022100000210A4603AB43F82120491C0829FADBB8
:10222000D8B3216949B308F1010862690B9801210B
:1022300090475D28F4D1B9F1000F09D0002003A91F
:1022400051F82020D24341F82020401C0828F7DB19
:1022500003AB2069002820794FEA40701ED05B460E
:102260002246CDF80080CDE901970D9900286FF046
:10227000010020DAAFF300801FE0C11703AA00EBD2
:10228000D1614B1121F01F0102EB8302411A136847
:102290000120884003431360C7E719E00D992246E7
:1022A00000286FF00100009702DAAFF3008004E02D
:1022B000FFF792FA01E0AFF3008000280ADA401C31
:1022C00006D10C9820B14FF0FF300FB0BDE8F08F71
:1022D0005046FAE7E90701D10AF1010A0644002055
:1022E0000C9053E6CCCCCC0C2DE9F0478146164639
:1022F0008AB0354878440DC88DE80D0032487844DE
:10230000801C03AC0DC884E80D0041F69B300844E6
:10231000372190FBF1F290FBF1F5A5F1800501FB6F
:1023200012041B3C02D56442012000E00020DFF8CB
:1023300098A080460027FA44AAF1BE0A0EE0E00702
:102340000AD03246684607EB470101230AEB8101B8
:1023500000F03AFD8DE8070064107F1C002CEED1E0
:10236000194F7F44AE3F19E0E80715D007EB041082
:102370000DF1180A90E80E008AE80E00C068F042DD
:1023800001D1981908903246012306A903A800F04C
:102390001BFD03AB83E807006D10641C002DE3D127
:1023A0004FF0010332466946B8F1000F03A802D08E
:1023B00000F0E0FC01E000F007FDC9E90001C9F808
:1023C00008200AB0BDE8F087A8130000007B00F0E9
:1023D000800070477546FFF7A3FDAE4605006946CD
:1023E000534620F00700854618B020B5FEF75EFB87
:1023F000BDE820404FF000064FF000074FF0000806
:102400004FF0000B21F00701AC46ACE8C009ACE886
:10241000C009ACE8C009ACE8C0098D46704710B5EA
:10242000FFF782FD006810BD10B50446FFF77CFD84
:10243000046010BD2DE9FF4F1F464FF03C0987B0E7
:102440004FF00042DDE9141001F10108DDF858A059
:1024500002EA40500390002005908346054604465A
:102460000490B969461E08988847AAF1010A0290AB
:10247000BAF1000F3BDD02982E2815D0102100F094
:102480001FFA00282EDB4FF0010B0599014317D0EE
:10249000B9F1000F0BDB4A46C11700F0FEF9054306
:1024A0000C43A9F1040905E0012004900BE008B1F8
:1024B00045F0010501200590049820B9361D02E081
:1024C000049800B1361FB969089808F101088847D7
:1024D000BBF1000FAAF1010A0290C9D00999C1F815
:1024E0000080C5E70298702808D0502806D0F96906
:1024F00008988847BBF1000F14D04FE000200290ED
:102500000120BBF1000F049009D0B969089808F1C7
:1025100001088847AAF10109B9F1000F07DCF96940
:10252000089888476FF001000BB0BDE8F08F2B28AA
:1025300004D02D280CD14FF0FF300490B9690898D1
:1025400008F101088847A9F10109B9F1000FE6DD9A
:10255000411CE4D00A2100F0B3F90028DFDB029926
:1025600008F1010801EB810100EB41000290B9691B
:10257000089888470A2100F0A3F9099AA9F10109EE
:10258000B9F1000FC2F8008001DD0028E7DAF9692F
:10259000089888470499029800FB016655EA0400F0
:1025A00004D004F04041090002D006E0039898E00E
:1025B000A40044EA9574AD00B61E04F00041080082
:1025C00002D16D196441761E159810F0240F03D0C6
:1025D0004FF00B095C4803E04FF028096FF07D00D5
:1025E0008246564507DAAAEB06018944B9F1410F44
:1025F00001DD4FF0410901200021A9F1010200F0A5
:102600004CF9024628400B462140084301D00121E5
:1026100000E00021501E029143F1FF31284021408B
:10262000084301D0012000E000200299834651EACE
:102630000B014FD0002108464FF00000039900F431
:10264000400039B100EB80004FF4400100EBD07046
:1026500001EA60008015012802DD4FF0FF3000E044
:1026600013D0401C36D0029860B3BBF1000F0CD1E0
:102670004A460120002100F010F92840214008437B
:1026800001D0012000E00020E0B101204A460021F5
:1026900000F003F9034640190A4661412D1A8C41A6
:1026A00011D3B9F1400F09DD159810F0240F02D0B5
:1026B000AAF1340603E0AAF1170600E0761C002513
:1026C0004FF0004406E05B1E42F1FF3220EA0305B2
:1026D00021EA0204CAF10100B04206DA1B4903985C
:1026E00008430190002000900EE0039AC4F3D32128
:1026F000E80A0A43164940EA44500A433146CDE904
:102700000002684600F022FD159810F0240F0BD04F
:102710001598C00715D13868DDE90012031D3B602C
:102720000068C0E900120CE002A8694600F0A8FCAD
:102730001598C00705D13868029A011D39600068F4
:1027400002604046F0E6000002FCFFFF0000F07F60
:102750000000F03F2DE9FF4F92461D4685B04FF037
:102760000041DDE9124BDDE914727F1E01EA4B5096
:10277000414940F0FF4940EA0108002122F02000D1
:102780004928049102D04E2828D04CE03BA00126D5
:1027900007C88DE80700A9690698641C88477F1E52
:1027A000014606D41DF8060018B121F0200181422F
:1027B0000BD0E96906988847032E34D0082E32D012
:1027C0006FF0010009B0BDE8F08F761C032E01D038
:1027D000082EE0D1601CCAF80000DCE7A969069861
:1027E000641C88477F1E2AD420F02000412826D16F
:1027F000A9690698641C88477F1E20D420F0200019
:102800004E281CD1A9690698641C88477F1E48F48D
:10281000002849F48009CAF8004001D4282806D0CD
:10282000E969069888475FEACB7012D022E0A9696F
:102830000698641C88477F1E01D4002803DAE969E2
:1028400006988847BCE72928F1D1641CCAF80040E3
:10285000E9E71BF0240F07D028680499031D2B60BB
:102860000068C0E9001805E02868021D2A600068B9
:10287000C0F800902046A5E70000F07F494E464989
:102880004E4954590000000010B50446AFF30080D3
:102890002046BDE81040FDF7A5BCB2F120030AD5E3
:1028A000C2F1200301FA02F120FA03F300FA02F068
:1028B00041EA0301704700FA03F14FF0000070474E
:1028C0003A2800D2303820F02002412A01D3A2F168
:1028D0003700884201D34FF0FF30704720F07F4C23
:1028E00080EA030023F07F47ACEB070303F57C533A
:1028F00000F0004003F1FF032DE980494FEA154B3A
:1029000009B44FEA144325EA0B4E24EA03480FF2B8
:10291000042606EB132749083E785FEA320203FBE0
:102920000667C7F5000707FB06F64FEA54374FEA7C
:10293000D64606F1020607FB066CCCF1005C4FEAB6
:102940001C472CEA074C07FB06F40CFB06F504EBCE
:1029500015464FEA961634BF00204FF000404FEA6C
:10296000D13706FB07FC4FEA1C4C0CFB0BF7D21BC4
:1029700003FB0CF761EB07010CFB0EF7B0EB074014
:1029800072EB17420CFB08F734BFA2EB0742B2EB25
:10299000074261EB17414FEA0C444FEA910706FBEF
:1029A00007FC4FEA1C4C0CFB0BF7B0EBC74072EB7B
:1029B000573203FB0CF734BFA2EBC742B2EBC7425E
:1029C00061EB57310CFB0EF7B0EBC70072EB57729F
:1029D0000CFB08F734BFA2EBC702B2EBC70261EBF6
:1029E0005771039F4FEA816141EA921104EBCC04D5
:1029F0004FEAD1374FEA826206FB07FC42EA9012A7
:102A00004FEA80604FEA1C4C0CFB0BF7D21B03FB18
:102A10000CF761EB07010CFB0EF7B0EB074072EB14
:102A200017420CFB08F734BFA2EB0742B2EB074298
:102A300061EB17414FEA8C554FEA910704EB9C2458
:102A400006FB07FC4FEA1C4C0CFB0BF7B0EBC74036
:102A500072EB573203FB0CF734BFA2EBC742B2EB69
:102A6000C74261EB57310CFB0EF7B0EBC70072EBBE
:102A700057720CFB08F734BFA2EBC702B2EBC702D8
:102A800061EB577115EB4C254FEA816141EA9211D8
:102A90004FEA82624FEAD13742EA901206FB07FC06
:102AA00044F100044FEA80604FEA1C4C0CFB0BF72A
:102AB000D21B03FB0CF761EB07010CFB0EF7B0EB2D
:102AC000074072EB17420CFB08F734BFA2EB07423A
:102AD000B2EB074261EB174115EB1C154FEA813150
:102AE00041EA92414FEA823242EA90424FEA803014
:102AF0004FEA0C7644F1000448EA03434EEA0B48DF
:102B00004FF0000EB2EB080C71EB030724BF6246D6
:102B100039464EEB0E0E4FF0000B00185241494162
:102B20004BEB0B0BB2EB080C71EB03077BF1000BCB
:102B300024BF624639464EEB0E0E4FF0000B0018D4
:102B4000524149414BEB0B0BB2EB080C71EB030705
:102B50007BF1000B24BF624639464EEB0E0E51EA64
:102B6000020718BF46F0010616EB0E7655F100027B
:102B700054F1000103D5BDE88901BDE80088BDE836
:102B80008901BDE80048B619524141EB0101A3F1AA
:102B90000103704780807F7E7D7C7B7A79787776B1
:102BA00076757473727171706F6E6E6D6C6C6B6A2A
:102BB0006A696868676666656464636362616160C8
:102BC000605F5F5E5E5D5D5C5C5B5B5A5A59595845
:102BD00058575756565555555454535352525251AF
:102BE000515050504F4F4F4E4E4D4D4D4C4C4C4B05
:102BF0004B4B4A4A4A49494948484847474747464C
:102C00004646454545444444444343434342424287
:102C10004241414146EA0646A3F570534FEA164643
:102C200046EA42564FEAD22242EA415210B54FEAF2
:102C3000D121A3F1010300F02FF820F0004000F1B2
:102C4000020C00F0004701EB00501146BCF5006F8C
:102C500040EA070000D210BDBAF1000F0AD01CB53F
:102C600003B44FF004004FF004014FF000000FBC1C
:102C7000BDE810404FF00001BBF1010FB9BF04489F
:102C80004FF0FF310348002140EA070010BD00BFAC
:102C9000FFFFEF7F0000F07F002B9C4630D47700D1
:102CA0002BD01CB54FEA370703B44FF010004FF09C
:102CB0001001BAF1000F06D0BCF1000FDCBF40F0EC
:102CC000080040F008014FF000000FBCBDE81040C4
:102CD0000BF1010BBBF1010F08BF5FEA170722BF21
:102CE00012F1010211F101014FF0004143F1000323
:102CF00000F0004043EA00007047F9D35708D0E7DE
:102D000046EA064613F1400F4FEA16461FDD13F15F
:102D1000200FDFBF16430A46002120335B42BED09E
:102D2000C3F1200746EA064602FA07F74FEA1646BD
:102D300046EA0706C3F1200722FA03F201FA07F771
:102D400021FA03F14FF0000342EA0702A7E746EA3F
:102D5000020646EA06464FEA164646EA0106BCBFA8
:102D600046EA0646360C4FF000034FF000024FF0E3
:102D7000000194E72DE9804C9A46934670B491E89F
:102D8000380007C831EA400C48BF34EA430C03D589
:102D9000FFF7A4FDFFF780FFF0BCBDE8008C2DE934
:102DA000804C9A46934670B491E8380007C831EADF
:102DB000400C48BF34EA430C03D5FFF78FFDFFF703
:102DC00029FFF0BCBDE8008C2DE9804C9A46934663
:102DD00070B491E8380007C810F0804F08BF13F0B6
:102DE000804F03D100F01AF8FFF756FFF0BCBDE8A2
:102DF000008C2DE9804C9A46934670B491E83800D7
:102E000007C810F0804F08BF13F0804F03D100F0C7
:102E100005F8FFF7FFFEF0BCBDE8008C20F07F470F
:102E200080EA030023F07F4C07EB0C03A3F57C53EF
:102E300000F00040A3F1FE0392F0000F00F0B38019
:102E400095F0000F00F077802DE901494FEA11401D
:102E50004FEA144621EA004800FB06FC24EA064734
:102E600008FB06F607FB08F800FB07F718EB064817
:102E70004CEB164C4FEA124B18EB07484FEA15463D
:102E80004CEB174022EA0B4E0BFB06FC25EA0647EB
:102E90000EFB06F607FB0EFE0BFB07F71EEB064EBE
:102EA0004CEB164C4FF000061EEB074E4CEB174B4D
:102EB00018EB0B0840F1000018EB0E0B58EB000864
:102EC00040F100008F1A4FF000013CBFC943661B60
:102ED00014BFB5EB040C00213CBFC943F61B4FEAFD
:102EE00017444EEA8E0E27EA04454FEA1C4704FBBE
:102EF00007622CEA074C05FB07F70CFB05F604FB01
:102F00000CFC16EB074642EB174216EB0C4642EB65
:102F10001C421BEB060658EB0202414146EA9E06A4
:102F200001D5BDE80189B619524141EB0101A3F178
:102F30000103BDE801894FEA14454FEA114724EA2D
:102F4000054621EA074C05FB07F406FB07F70CFBD7
:102F500006F105FB0CFC11EB074144EB17444FEA6B
:102F6000124711EB0C4144EB1C4422EA074C05FBD1
:102F700007F206FB07F70CFB06F605FB0CFC16EB4D
:102F8000074642EB174216EB0C4642EB1C456A180B
:102F900054F1000148BF7047B619524141EB01019D
:102FA000A3F10103704795F0000F37D04FEA1142AB
:102FB0004FEA144721EA024624EA074C02FB07F1D4
:102FC00006FB07F70CFB06F402FB0CFC14EB0744B2
:102FD00041EB17414FEA154714EB0C4441EB1C4100
:102FE00025EA074C02FB07F506FB07F70CFB06F684
:102FF00002FB0CFC16EB074645EB174516EB0C469F
:1030000045EB1C42121951F1000148BF7047B61937
:10301000524141EB0101A3F1010370474FEA14450E
:103020004FEA114724EA054621EA074C05FB07F160
:1030300006FB07F70CFB06F24FF0000605FB0CFC45
:1030400012EB074241EB174112EB0C4251EB1C41D2
:1030500048BF7047921841EB0101A3F1010370478B
:1030600040F2013200204FF0E04100F08FBA000042
:10307000024A0020110700F089BA000001FDFFFF9D
:1030800010B50446D1E9000100F002F8206010BD3F
:10309000F8B504460D466A4600F06AF800987E309E
:1030A000009000281EDC002213462046294600F02E
:1030B00037F917D0002140F608004FF0000006460F
:1030C0002046294600F0E6F8044640F6080006EAE5
:1030D00000014FF0000034F0004004BF0220FFF771
:1030E000A3F929E00098FF2828DB002108464FF0CB
:1030F000000000F44006002213462046294600F056
:10310000D5F98CBF002501250220FFF78DF94FF07E
:10311000FF4446B1002D0CBF4FF400004FF4800077
:10312000B04218BF084C042108464FF00000002DA3
:1031300004BF84F00040F8BD2046F8BD2046294673
:10314000BDE8F84000F0A6B8FFFF7F7F10B5044649
:103150000A46D4E90003194600F036F8C4E9000134
:1031600010BD30380A2801D2012070470020704776
:1031700010B5144600222260114A21F00043934208
:10318000A8BF10BD53EA000208BF10BDB3F5801FF1
:10319000A8BF226807DA362200F0F8F96FF035028E
:1031A00021F000432260DFF81CC06FF31E510CEBCE
:1031B00023531A4441F0FF5141F00051226010BDE9
:1031C0000000F07F02FCFFFF2DE9F04106460C46AF
:1031D00040F2FF75174635EA14502BD000221346F3
:1031E000304600F09DF825D03A463046214600F0A2
:1031F000CDF906460C4635EA145010D0002213468D
:10320000304600F08DF815D10220FFF70DF9FFF7D9
:103210002FFF0A46214662F31E01BDE8F08102201D
:10322000FFF702F9FFF71CFF0A46214662F31E0171
:10323000BDE8F08130462146BDE8F08110B5002997
:103240000AD00878002807D005487844FEF746FBE6
:10325000002801D0002010BD0248784410BD0000B5
:103260009E0400009604000010B500290AD00878DA
:10327000002807D005487844FEF730FB002801D02D
:10328000002010BD0248784410BD000082050000F7
:103290007A05000021F00042A2F16052B2F5801FD1
:1032A00001F0004328BFD2F17F6C0BD95FEA001C0C
:1032B00043EAC20242EB507018BF704728BF20F0AB
:1032C00001007047B2F5801FBCBF184670474FEA37
:1032D000410C1CF5001F02D2084600F01DB970B564
:1032E00000F096F800000089FFF7F6BF4FF00040AD
:1032F000A0F580007047000002494FF0000000F088
:1033000013B900BF0000F87F491058BFC1F1404118
:103310005B1058BFC3F140438B42EFF3008070470E
:1033200051EA030C17D41CF5801F58BFBCF5801F51
:1033300000F10680994218BF704708BF904270475D
:1033400007D711F5801F58BF13F5801F19D4994274
:103350007047894270471CF5801F08D5BCF5801F57
:10336000F7D58B4218BF704708BF824270474FF4B1
:10337000001C1CEB410F38BF1CEB430F01D28B42EA
:10338000704770B500F044F8922449004FF00051A6
:103390004FF08053FFF7B8BF51EA030C17D41CF568
:1033A000801F58BFBCF5801F00F10680994218BFEE
:1033B000704708BF9042704707D711F5801F58BF6C
:1033C00013F5801F19D499427047894270471CF544
:1033D000801F08D5BCF5801FF7D58B4218BF7047FA
:1033E00008BF824270474FF4001C1CEB410F38BFEE
:1033F0001CEB430F01D28B42704770B500F008F808
:10340000922449004FF000514FF08053FFF77CBFEA
:103410000EF1020E2EF0030E5EF8046B364205D458
:10342000012A43EB030515F5001F12D8012841EBD3
:10343000010C1CF5001F0CD80ED14FEAD17C15F5FC
:10344000001F0CEB4C0C0CF1020C08BF4CEBD37CB6
:1034500004E04FF0080C01E04FEAD37C0CEB4C0584
:1034600026FA05F606F00706B6F1040C06D20EEBB6
:10347000860CBDE870404CF0010C6047DFE80CF0B2
:10348000090B02024FF000414FF00000A1F50021AE
:1034900070BD19461046012851EB010418BFD4F540
:1034A000001484BF002001F0004170BD53EA010CFC
:1034B00017D41CF5801F58BFBCF5801F00F1068093
:1034C0008B4218BF704708BF8242704707D713F579
:1034D000801F58BF11F5801F19D48B4270479B4243
:1034E00070471CF5801F08D5BCF5801FF7D59942A1
:1034F00018BF704708BF904270474FF4001C1CEB88
:10350000430F38BF1CEB410F01D2994270470FB4F3
:103510000CBC03BCFFF771BFFF2141EAD050C005CE
:1035200070474FF0000070470CF00F03092B08BFE5
:10353000082000F05F800A2B0BD0082B18BF7047C3
:1035400008BF1CF0400F0AD04FF000004FF0000100
:1035500070471CF0400F18BF4FF0004070471CF040
:10356000100F08D020F0704300F07F4242EAD301F0
:103570004FEA4370704700F0604021F07F4242EA1A
:10358000000201F07F4040EA727070474FF0FF0C7C
:103590004CF4E06C1CEA11531CBF9CEA030C9445EC
:1035A000C2BFDA4201EB02517047002B0DD0BCF1D3
:1035B000000F0FD0002A01F00041A4BF41F0E0410C
:1035C00041F07F614FF00000704701F000414FF083
:1035D0000000704750EA01334FF09B0C18BF4CF0CD
:1035E000806C7FF489AE7047FEF70EBBFEF722BFFA
:1035F000FFF7B0B81CF4801F11D01CF4E02F03D0EB
:103600006FEACC31490070474FF04050EFF3008231
:1036100022F0704242EA000282F3008870474FF0C5
:103620000000704702400000000000A00000000001
:1036300005400000000000C8000000000C40000031
:103640000000409C00000000194000000020BCBEAB
:103650000000000034400000BFC91B8E00000004C1
:10366000B5400000504BCFD06607E2CF010000000C
:103670006C4100003E8251AADFEEA7340100000039
:10368000D9420000DCB5A0E23A301F97FFFFFFFFF0
:10369000B4450000FD25A0C8E9A3C14FFFFFFFFF0F
:1036A000FF3F00000000008000000000FF3F00001E
:1036B0000000008000000000143800080000002016
:1036C000580000006C0100086C3800085800002009
:1036D0000009000088010008000000000000F07FE1
:1036E000FFFFFFFFFFFFEF7F10010000430000001E
:1036F000F8FFFFFF00404040404040404040414113
:1037000041414140404040404040404040404040B6
:103710004040404040050202020202020202020250
:10372000020202020220202020202020202020024D
:1037300002020202020290909090909010101010DD
:103740001010101010101010101010101010101079
:10375000020202020202888888888888080808080D
:1037600008080808080808080808080808080808D9
:103770000202020240000000000000000000000001
:103780000000000000000000000000000000000039
:103790000000000000000000000000000000000029
:1037A0000000000000000000000000000000000019
:1037B0000000000000000000000000000000000009
:1037C00000000000000000000000000000000000F9
:1037D00000000000000000000000000000000000E9
:1037E00000000000000000000000000000000000D9
:1037F00000000000000000001C000000430000006A
:10380000F8FFFFFF0C0000000E0000000F0000009A
:103810002E00000000A24A0400000000000000008A
:103820000102030406070809000000000000000070
:103830000000000000006400000000000000000024
:103840000000000000000000000000000000000078
:10385000000000000000000000000000010203045E
:0C38600001020304060708090204060820
:0400000508000131BD
:00000001FF
